{
  "_format": "hh-sol-artifact-1",
  "contractName": "BusBooking",
  "sourceName": "contracts/BusBooking.sol",
  "abi": [
    {
      "anonymous": false,
      "inputs": [
        {
          "indexed": false,
          "internalType": "uint256",
          "name": "tripId",
          "type": "uint256"
        },
        {
          "indexed": false,
          "internalType": "address",
          "name": "passenger",
          "type": "address"
        },
        {
          "indexed": false,
          "internalType": "uint256",
          "name": "seatCount",
          "type": "uint256"
        }
      ],
      "name": "SeatBooked",
      "type": "event"
    },
    {
      "anonymous": false,
      "inputs": [
        {
          "indexed": false,
          "internalType": "uint256",
          "name": "id",
          "type": "uint256"
        },
        {
          "indexed": false,
          "internalType": "string",
          "name": "start",
          "type": "string"
        },
        {
          "indexed": false,
          "internalType": "string",
          "name": "destination",
          "type": "string"
        },
        {
          "indexed": false,
          "internalType": "uint256",
          "name": "date",
          "type": "uint256"
        },
        {
          "indexed": false,
          "internalType": "uint256",
          "name": "seats",
          "type": "uint256"
        },
        {
          "indexed": false,
          "internalType": "uint256",
          "name": "price",
          "type": "uint256"
        },
        {
          "indexed": false,
          "internalType": "address",
          "name": "company",
          "type": "address"
        }
      ],
      "name": "TripCreated",
      "type": "event"
    },
    {
      "inputs": [
        {
          "internalType": "uint256",
          "name": "_tripId",
          "type": "uint256"
        },
        {
          "internalType": "uint256",
          "name": "_seats",
          "type": "uint256"
        }
      ],
      "name": "bookSeat",
      "outputs": [],
      "stateMutability": "payable",
      "type": "function"
    },
    {
      "inputs": [
        {
          "internalType": "uint256",
          "name": "",
          "type": "uint256"
        },
        {
          "internalType": "uint256",
          "name": "",
          "type": "uint256"
        }
      ],
      "name": "bookings",
      "outputs": [
        {
          "internalType": "address",
          "name": "",
          "type": "address"
        }
      ],
      "stateMutability": "view",
      "type": "function"
    },
    {
      "inputs": [
        {
          "internalType": "string",
          "name": "_start",
          "type": "string"
        },
        {
          "internalType": "string",
          "name": "_dest",
          "type": "string"
        },
        {
          "internalType": "uint256",
          "name": "_date",
          "type": "uint256"
        },
        {
          "internalType": "uint256",
          "name": "_seats",
          "type": "uint256"
        },
        {
          "internalType": "uint256",
          "name": "_price",
          "type": "uint256"
        }
      ],
      "name": "createTrip",
      "outputs": [],
      "stateMutability": "nonpayable",
      "type": "function"
    },
    {
      "inputs": [],
      "name": "getTotalTrips",
      "outputs": [
        {
          "internalType": "uint256",
          "name": "",
          "type": "uint256"
        }
      ],
      "stateMutability": "view",
      "type": "function"
    },
    {
      "inputs": [
        {
          "internalType": "uint256",
          "name": "_id",
          "type": "uint256"
        }
      ],
      "name": "getTrip",
      "outputs": [
        {
          "components": [
            {
              "internalType": "uint256",
              "name": "id",
              "type": "uint256"
            },
            {
              "internalType": "string",
              "name": "startCity",
              "type": "string"
            },
            {
              "internalType": "string",
              "name": "destinationCity",
              "type": "string"
            },
            {
              "internalType": "uint256",
              "name": "date",
              "type": "uint256"
            },
            {
              "internalType": "uint256",
              "name": "availableSeats",
              "type": "uint256"
            },
            {
              "internalType": "uint256",
              "name": "pricePerSeat",
              "type": "uint256"
            },
            {
              "internalType": "address",
              "name": "company",
              "type": "address"
            }
          ],
          "internalType": "struct BusBooking.Trip",
          "name": "",
          "type": "tuple"
        }
      ],
      "stateMutability": "view",
      "type": "function"
    },
    {
      "inputs": [],
      "name": "nextTripId",
      "outputs": [
        {
          "internalType": "uint256",
          "name": "",
          "type": "uint256"
        }
      ],
      "stateMutability": "view",
      "type": "function"
    },
    {
      "inputs": [
        {
          "internalType": "uint256",
          "name": "",
          "type": "uint256"
        }
      ],
      "name": "trips",
      "outputs": [
        {
          "internalType": "uint256",
          "name": "id",
          "type": "uint256"
        },
        {
          "internalType": "string",
          "name": "startCity",
          "type": "string"
        },
        {
          "internalType": "string",
          "name": "destinationCity",
          "type": "string"
        },
        {
          "internalType": "uint256",
          "name": "date",
          "type": "uint256"
        },
        {
          "internalType": "uint256",
          "name": "availableSeats",
          "type": "uint256"
        },
        {
          "internalType": "uint256",
          "name": "pricePerSeat",
          "type": "uint256"
        },
        {
          "internalType": "address",
          "name": "company",
          "type": "address"
        }
      ],
      "stateMutability": "view",
      "type": "function"
    }
  ],
  "bytecode": "0x608060405234801561001057600080fd5b50611382806100206000396000f3fe6080604052600436106100705760003560e01c8063312c73b31161004e578063312c73b3146100f757806370ac535d146101345780638921a3461461015f578063f6824a7c1461018a57610070565b80630101170514610075578063080f94e9146100b2578063163c385a146100ce575b600080fd5b34801561008157600080fd5b5061009c6004803603810190610097919061095d565b6101cd565b6040516100a99190610b0d565b60405180910390f35b6100cc60048036038101906100c79190610b2f565b61039c565b005b3480156100da57600080fd5b506100f560048036038101906100f09190610ca4565b610591565b005b34801561010357600080fd5b5061011e60048036038101906101199190610b2f565b6106f1565b60405161012b9190610d66565b60405180910390f35b34801561014057600080fd5b5061014961073f565b6040516101569190610d90565b60405180910390f35b34801561016b57600080fd5b50610174610748565b6040516101819190610d90565b60405180910390f35b34801561019657600080fd5b506101b160048036038101906101ac919061095d565b61074e565b6040516101c49796959493929190610df5565b60405180910390f35b6101d56108c0565b600160008381526020019081526020016000206040518060e00160405290816000820154815260200160018201805461020d90610ea1565b80601f016020809104026020016040519081016040528092919081815260200182805461023990610ea1565b80156102865780601f1061025b57610100808354040283529160200191610286565b820191906000526020600020905b81548152906001019060200180831161026957829003601f168201915b5050505050815260200160028201805461029f90610ea1565b80601f01602080910402602001604051908101604052809291908181526020018280546102cb90610ea1565b80156103185780601f106102ed57610100808354040283529160200191610318565b820191906000526020600020905b8154815290600101906020018083116102fb57829003601f168201915b505050505081526020016003820154815260200160048201548152602001600582015481526020016006820160009054906101000a900473ffffffffffffffffffffffffffffffffffffffff1673ffffffffffffffffffffffffffffffffffffffff1673ffffffffffffffffffffffffffffffffffffffff16815250509050919050565b60006001600084815260200190815260200160002090506000821180156103c7575081816004015410155b610406576040517f08c379a00000000000000000000000000000000000000000000000000000000081526004016103fd90610f1e565b60405180910390fd5b8060050154826104169190610f6d565b3414610457576040517f08c379a000000000000000000000000000000000000000000000000000000000815260040161044e90610ffb565b60405180910390fd5b8181600401600082825461046b919061101b565b9250508190555060026000848152602001908152602001600020339080600181540180825580915050600190039060005260206000200160009091909190916101000a81548173ffffffffffffffffffffffffffffffffffffffff021916908373ffffffffffffffffffffffffffffffffffffffff1602179055508060060160009054906101000a900473ffffffffffffffffffffffffffffffffffffffff1673ffffffffffffffffffffffffffffffffffffffff166108fc349081150290604051600060405180830381858888f19350505050158015610550573d6000803e3d6000fd5b507f3a43c6a4e894cfa0da70927db88f584f373168c62d9d59fe6831b52afccb77fd8333846040516105849392919061104f565b60405180910390a1505050565b6040518060e0016040528060005481526020018681526020018581526020018481526020018381526020018281526020013373ffffffffffffffffffffffffffffffffffffffff16815250600160008054815260200190815260200160002060008201518160000155602082015181600101908161060f9190611232565b5060408201518160020190816106259190611232565b50606082015181600301556080820151816004015560a0820151816005015560c08201518160060160006101000a81548173ffffffffffffffffffffffffffffffffffffffff021916908373ffffffffffffffffffffffffffffffffffffffff1602179055509050507fc6b9d2c7f84c865887b7df73fae900a6d0d7f72882029e7895ceb76462bd1c836000548686868686336040516106cb9796959493929190610df5565b60405180910390a16000808154809291906106e590611304565b91905055505050505050565b6002602052816000526040600020818154811061070d57600080fd5b906000526020600020016000915091509054906101000a900473ffffffffffffffffffffffffffffffffffffffff1681565b60008054905090565b60005481565b600160205280600052604060002060009150905080600001549080600101805461077790610ea1565b80601f01602080910402602001604051908101604052809291908181526020018280546107a390610ea1565b80156107f05780601f106107c5576101008083540402835291602001916107f0565b820191906000526020600020905b8154815290600101906020018083116107d357829003601f168201915b50505050509080600201805461080590610ea1565b80601f016020809104026020016040519081016040528092919081815260200182805461083190610ea1565b801561087e5780601f106108535761010080835404028352916020019161087e565b820191906000526020600020905b81548152906001019060200180831161086157829003601f168201915b5050505050908060030154908060040154908060050154908060060160009054906101000a900473ffffffffffffffffffffffffffffffffffffffff16905087565b6040518060e00160405280600081526020016060815260200160608152602001600081526020016000815260200160008152602001600073ffffffffffffffffffffffffffffffffffffffff1681525090565b6000604051905090565b600080fd5b600080fd5b6000819050919050565b61093a81610927565b811461094557600080fd5b50565b60008135905061095781610931565b92915050565b6000602082840312156109735761097261091d565b5b600061098184828501610948565b91505092915050565b61099381610927565b82525050565b600081519050919050565b600082825260208201905092915050565b60005b838110156109d35780820151818401526020810190506109b8565b60008484015250505050565b6000601f19601f8301169050919050565b60006109fb82610999565b610a0581856109a4565b9350610a158185602086016109b5565b610a1e816109df565b840191505092915050565b600073ffffffffffffffffffffffffffffffffffffffff82169050919050565b6000610a5482610a29565b9050919050565b610a6481610a49565b82525050565b600060e083016000830151610a82600086018261098a565b5060208301518482036020860152610a9a82826109f0565b91505060408301518482036040860152610ab482826109f0565b9150506060830151610ac9606086018261098a565b506080830151610adc608086018261098a565b5060a0830151610aef60a086018261098a565b5060c0830151610b0260c0860182610a5b565b508091505092915050565b60006020820190508181036000830152610b278184610a6a565b905092915050565b60008060408385031215610b4657610b4561091d565b5b6000610b5485828601610948565b9250506020610b6585828601610948565b9150509250929050565b600080fd5b600080fd5b7f4e487b7100000000000000000000000000000000000000000000000000000000600052604160045260246000fd5b610bb1826109df565b810181811067ffffffffffffffff82111715610bd057610bcf610b79565b5b80604052505050565b6000610be3610913565b9050610bef8282610ba8565b919050565b600067ffffffffffffffff821115610c0f57610c0e610b79565b5b610c18826109df565b9050602081019050919050565b82818337600083830152505050565b6000610c47610c4284610bf4565b610bd9565b905082815260208101848484011115610c6357610c62610b74565b5b610c6e848285610c25565b509392505050565b600082601f830112610c8b57610c8a610b6f565b5b8135610c9b848260208601610c34565b91505092915050565b600080600080600060a08688031215610cc057610cbf61091d565b5b600086013567ffffffffffffffff811115610cde57610cdd610922565b5b610cea88828901610c76565b955050602086013567ffffffffffffffff811115610d0b57610d0a610922565b5b610d1788828901610c76565b9450506040610d2888828901610948565b9350506060610d3988828901610948565b9250506080610d4a88828901610948565b9150509295509295909350565b610d6081610a49565b82525050565b6000602082019050610d7b6000830184610d57565b92915050565b610d8a81610927565b82525050565b6000602082019050610da56000830184610d81565b92915050565b600082825260208201905092915050565b6000610dc782610999565b610dd18185610dab565b9350610de18185602086016109b5565b610dea816109df565b840191505092915050565b600060e082019050610e0a600083018a610d81565b8181036020830152610e1c8189610dbc565b90508181036040830152610e308188610dbc565b9050610e3f6060830187610d81565b610e4c6080830186610d81565b610e5960a0830185610d81565b610e6660c0830184610d57565b98975050505050505050565b7f4e487b7100000000000000000000000000000000000000000000000000000000600052602260045260246000fd5b60006002820490506001821680610eb957607f821691505b602082108103610ecc57610ecb610e72565b5b50919050565b7f4e6f7420656e6f75676820736561747300000000000000000000000000000000600082015250565b6000610f08601083610dab565b9150610f1382610ed2565b602082019050919050565b60006020820190508181036000830152610f3781610efb565b9050919050565b7f4e487b7100000000000000000000000000000000000000000000000000000000600052601160045260246000fd5b6000610f7882610927565b9150610f8383610927565b9250828202610f9181610927565b91508282048414831517610fa857610fa7610f3e565b5b5092915050565b7f57726f6e672076616c75652073656e7400000000000000000000000000000000600082015250565b6000610fe5601083610dab565b9150610ff082610faf565b602082019050919050565b6000602082019050818103600083015261101481610fd8565b9050919050565b600061102682610927565b915061103183610927565b925082820390508181111561104957611048610f3e565b5b92915050565b60006060820190506110646000830186610d81565b6110716020830185610d57565b61107e6040830184610d81565b949350505050565b60008190508160005260206000209050919050565b60006020601f8301049050919050565b600082821b905092915050565b6000600883026110e87fffffffffffffffffffffffffffffffffffffffffffffffffffffffffffffffff826110ab565b6110f286836110ab565b95508019841693508086168417925050509392505050565b6000819050919050565b600061112f61112a61112584610927565b61110a565b610927565b9050919050565b6000819050919050565b61114983611114565b61115d61115582611136565b8484546110b8565b825550505050565b600090565b611172611165565b61117d818484611140565b505050565b5b818110156111a15761119660008261116a565b600181019050611183565b5050565b601f8211156111e6576111b781611086565b6111c08461109b565b810160208510156111cf578190505b6111e36111db8561109b565b830182611182565b50505b505050565b600082821c905092915050565b6000611209600019846008026111eb565b1980831691505092915050565b600061122283836111f8565b9150826002028217905092915050565b61123b82610999565b67ffffffffffffffff81111561125457611253610b79565b5b61125e8254610ea1565b6112698282856111a5565b600060209050601f83116001811461129c576000841561128a578287015190505b6112948582611216565b8655506112fc565b601f1984166112aa86611086565b60005b828110156112d2578489015182556001820191506020850194506020810190506112ad565b868310156112ef57848901516112eb601f8916826111f8565b8355505b6001600288020188555050505b505050505050565b600061130f82610927565b91507fffffffffffffffffffffffffffffffffffffffffffffffffffffffffffffffff820361134157611340610f3e565b5b60018201905091905056fea264697066735822122032715cb1f884a881e75a879f05ac7db25926e770c4b8ba4d11f5949479f17d3064736f6c63430008130033",
  "linkReferences": {},
  "deployedLinkReferences": {}
}